{
  "contractName": "SaveData",
  "abi": [
    {
      "inputs": [
        {
          "internalType": "uint256",
          "name": "",
          "type": "uint256"
        }
      ],
      "name": "data",
      "outputs": [
        {
          "internalType": "string",
          "name": "hashOfOriginalDataString",
          "type": "string"
        },
        {
          "internalType": "string",
          "name": "secondTimeEncryptedString",
          "type": "string"
        },
        {
          "internalType": "address",
          "name": "sender",
          "type": "address"
        },
        {
          "internalType": "string",
          "name": "medReportId",
          "type": "string"
        }
      ],
      "stateMutability": "view",
      "type": "function"
    },
    {
      "inputs": [
        {
          "internalType": "address",
          "name": "",
          "type": "address"
        },
        {
          "internalType": "uint256",
          "name": "",
          "type": "uint256"
        }
      ],
      "name": "sendersToData",
      "outputs": [
        {
          "internalType": "uint256",
          "name": "",
          "type": "uint256"
        }
      ],
      "stateMutability": "view",
      "type": "function"
    },
    {
      "inputs": [],
      "name": "totalMedicalReports",
      "outputs": [
        {
          "internalType": "uint256",
          "name": "",
          "type": "uint256"
        }
      ],
      "stateMutability": "view",
      "type": "function"
    },
    {
      "inputs": [
        {
          "internalType": "string",
          "name": "secondTimeEncryptedString",
          "type": "string"
        },
        {
          "internalType": "string",
          "name": "hashOfOriginalDataString",
          "type": "string"
        },
        {
          "internalType": "string",
          "name": "medReportId",
          "type": "string"
        }
      ],
      "name": "saveData",
      "outputs": [],
      "stateMutability": "nonpayable",
      "type": "function"
    }
  ],
  "bytecode": "0x6080604052348015600e575f80fd5b506106f98061001c5f395ff3fe608060405234801561000f575f80fd5b506004361061004a575f3560e01c80632320b16b1461004e578063a6c4d30f14610063578063e7ee5d5214610089578063f0ba844014610091575b5f80fd5b61006161005c36600461040d565b6100b4565b005b61007661007136600461048f565b61017d565b6040519081526020015b60405180910390f35b6100765f5481565b6100a461009f3660046104c4565b6101a8565b6040516100809493929190610509565b6040805160808101825283815260208082018690523382840152606082018490525f80548152600190915291909120815181906100f190826105df565b506020820151600182019061010690826105df565b5060408201516002820180546001600160a01b0319166001600160a01b039092169190911790556060820151600382019061014190826105df565b5050335f908152600260209081526040822082548154600181018355918452918320015580549150806101738361069f565b9190505550505050565b6002602052815f5260405f208181548110610196575f80fd5b905f5260205f20015f91509150505481565b60016020525f90815260409020805481906101c29061055b565b80601f01602080910402602001604051908101604052809291908181526020018280546101ee9061055b565b80156102395780601f1061021057610100808354040283529160200191610239565b820191905f5260205f20905b81548152906001019060200180831161021c57829003601f168201915b50505050509080600101805461024e9061055b565b80601f016020809104026020016040519081016040528092919081815260200182805461027a9061055b565b80156102c55780601f1061029c576101008083540402835291602001916102c5565b820191905f5260205f20905b8154815290600101906020018083116102a857829003601f168201915b505050600284015460038501805494956001600160a01b039092169491935091506102ef9061055b565b80601f016020809104026020016040519081016040528092919081815260200182805461031b9061055b565b80156103665780601f1061033d57610100808354040283529160200191610366565b820191905f5260205f20905b81548152906001019060200180831161034957829003601f168201915b5050505050905084565b634e487b7160e01b5f52604160045260245ffd5b5f82601f830112610393575f80fd5b813567ffffffffffffffff808211156103ae576103ae610370565b604051601f8301601f19908116603f011681019082821181831017156103d6576103d6610370565b816040528381528660208588010111156103ee575f80fd5b836020870160208301375f602085830101528094505050505092915050565b5f805f6060848603121561041f575f80fd5b833567ffffffffffffffff80821115610436575f80fd5b61044287838801610384565b94506020860135915080821115610457575f80fd5b61046387838801610384565b93506040860135915080821115610478575f80fd5b5061048586828701610384565b9150509250925092565b5f80604083850312156104a0575f80fd5b82356001600160a01b03811681146104b6575f80fd5b946020939093013593505050565b5f602082840312156104d4575f80fd5b5035919050565b5f81518084528060208401602086015e5f602082860101526020601f19601f83011685010191505092915050565b608081525f61051b60808301876104db565b828103602084015261052d81876104db565b6001600160a01b03861660408501528381036060850152905061055081856104db565b979650505050505050565b600181811c9082168061056f57607f821691505b60208210810361058d57634e487b7160e01b5f52602260045260245ffd5b50919050565b601f8211156105da57805f5260205f20601f840160051c810160208510156105b85750805b601f840160051c820191505b818110156105d7575f81556001016105c4565b50505b505050565b815167ffffffffffffffff8111156105f9576105f9610370565b61060d81610607845461055b565b84610593565b602080601f831160018114610640575f84156106295750858301515b5f19600386901b1c1916600185901b178555610697565b5f85815260208120601f198616915b8281101561066e5788860151825594840194600190910190840161064f565b508582101561068b57878501515f19600388901b60f8161c191681555b505060018460011b0185555b505050505050565b5f600182016106bc57634e487b7160e01b5f52601160045260245ffd5b506001019056fea2646970667358221220ee912aba066d6bc06735983c53afd200c7b95de552351dc50dd1630c77a4c98364736f6c63430008190033",
  "immutableReferences": {},
  "source": "// SPDX-License-Identifier: UNLICENSED\npragma solidity ^0.8.0;\n\ncontract SaveData {\n  // State variables\n  uint256 public totalMedicalReports;\n  mapping(uint256 => Data) public data;\n  mapping(address => uint256[]) public sendersToData; // New mapping for sender's data IDs\n\n  // Structs\n  struct Data {\n    string hashOfOriginalDataString;\n    string secondTimeEncryptedString;\n    address sender;\n    string medReportId;\n  }\n\n  // Function to save data\n  function saveData(\n    string memory secondTimeEncryptedString,\n    string memory hashOfOriginalDataString,\n    string memory medReportId\n  ) public {\n    data[totalMedicalReports] = Data(\n      hashOfOriginalDataString,\n      secondTimeEncryptedString,\n      msg.sender,\n      medReportId\n    );\n\n    sendersToData[msg.sender].push(totalMedicalReports);\n    totalMedicalReports++;\n  }\n}\n",
  "sourcePath": "E:\\minor project\\blockchaiinmasterrr\\blockchain-master\\contracts\\SaveData.sol",
  "compiler": {
    "name": "solc",
    "version": "0.8.25+commit.b61c2a91.Emscripten.clang"
  },
  "schemaVersion": "3.4.16",
  "updatedAt": "2024-04-30T07:00:19.558Z",
  "devdoc": {
    "kind": "dev",
    "methods": {},
    "version": 1
  },
  "userdoc": {
    "kind": "user",
    "methods": {},
    "version": 1
  }
}